{
  "contractName": "tokenSale",
  "abi": [
    {
      "inputs": [
        {
          "internalType": "contract token",
          "name": "_token",
          "type": "address"
        },
        {
          "internalType": "uint256",
          "name": "_tokenPrice",
          "type": "uint256"
        }
      ],
      "stateMutability": "nonpayable",
      "type": "constructor"
    },
    {
      "anonymous": false,
      "inputs": [
        {
          "indexed": false,
          "internalType": "address",
          "name": "_buyer",
          "type": "address"
        },
        {
          "indexed": false,
          "internalType": "uint256",
          "name": "_amount",
          "type": "uint256"
        }
      ],
      "name": "Sell",
      "type": "event"
    },
    {
      "inputs": [],
      "name": "Token",
      "outputs": [
        {
          "internalType": "contract token",
          "name": "",
          "type": "address"
        }
      ],
      "stateMutability": "view",
      "type": "function",
      "constant": true
    },
    {
      "inputs": [],
      "name": "tokenPrice",
      "outputs": [
        {
          "internalType": "uint256",
          "name": "",
          "type": "uint256"
        }
      ],
      "stateMutability": "view",
      "type": "function",
      "constant": true
    },
    {
      "inputs": [],
      "name": "tokenSold",
      "outputs": [
        {
          "internalType": "uint256",
          "name": "",
          "type": "uint256"
        }
      ],
      "stateMutability": "view",
      "type": "function",
      "constant": true
    },
    {
      "inputs": [
        {
          "internalType": "uint256",
          "name": "_amount",
          "type": "uint256"
        }
      ],
      "name": "buyToken",
      "outputs": [],
      "stateMutability": "payable",
      "type": "function",
      "payable": true
    }
  ],
  "bytecode": "0x608060405234801561001057600080fd5b506040516109cb3803806109cb8339818101604052810190610032919061016c565b33600260006101000a81548173ffffffffffffffffffffffffffffffffffffffff021916908373ffffffffffffffffffffffffffffffffffffffff160217905550816000806101000a81548173ffffffffffffffffffffffffffffffffffffffff021916908373ffffffffffffffffffffffffffffffffffffffff1602179055508060038190555050506101ac565b600080fd5b600073ffffffffffffffffffffffffffffffffffffffff82169050919050565b60006100f1826100c6565b9050919050565b6000610103826100e6565b9050919050565b610113816100f8565b811461011e57600080fd5b50565b6000815190506101308161010a565b92915050565b6000819050919050565b61014981610136565b811461015457600080fd5b50565b60008151905061016681610140565b92915050565b60008060408385031215610183576101826100c1565b5b600061019185828601610121565b92505060206101a285828601610157565b9150509250929050565b610810806101bb6000396000f3fe60806040526004361061003f5760003560e01c80632d296bf114610044578063519ee19e146100605780637ff9b5961461008b578063c2412676146100b6575b600080fd5b61005e600480360381019061005991906103a9565b6100e1565b005b34801561006c57600080fd5b5061007561033e565b60405161008291906103e5565b60405180910390f35b34801561009757600080fd5b506100a0610344565b6040516100ad91906103e5565b60405180910390f35b3480156100c257600080fd5b506100cb61034a565b6040516100d8919061047f565b60405180910390f35b600354816100ef91906104c9565b3414610130576040517f08c379a000000000000000000000000000000000000000000000000000000000815260040161012790610580565b60405180910390fd5b8060008054906101000a900473ffffffffffffffffffffffffffffffffffffffff1673ffffffffffffffffffffffffffffffffffffffff166370a08231306040518263ffffffff1660e01b815260040161018a91906105c1565b602060405180830381865afa1580156101a7573d6000803e3d6000fd5b505050506040513d601f19601f820116820180604052508101906101cb91906105f1565b101561020c576040517f08c379a00000000000000000000000000000000000000000000000000000000081526004016102039061066a565b60405180910390fd5b60008054906101000a900473ffffffffffffffffffffffffffffffffffffffff1673ffffffffffffffffffffffffffffffffffffffff1663a9059cbb33836040518363ffffffff1660e01b815260040161026792919061068a565b6020604051808303816000875af1158015610286573d6000803e3d6000fd5b505050506040513d601f19601f820116820180604052508101906102aa91906106eb565b6102e9576040517f08c379a00000000000000000000000000000000000000000000000000000000081526004016102e090610764565b60405180910390fd5b80600160008282546102fb9190610784565b925050819055507f5e5e995ce3133561afceaa51a9a154d5db228cd7525d34df5185582c18d3df09338260405161033392919061068a565b60405180910390a150565b60015481565b60035481565b60008054906101000a900473ffffffffffffffffffffffffffffffffffffffff1681565b600080fd5b6000819050919050565b61038681610373565b811461039157600080fd5b50565b6000813590506103a38161037d565b92915050565b6000602082840312156103bf576103be61036e565b5b60006103cd84828501610394565b91505092915050565b6103df81610373565b82525050565b60006020820190506103fa60008301846103d6565b92915050565b600073ffffffffffffffffffffffffffffffffffffffff82169050919050565b6000819050919050565b600061044561044061043b84610400565b610420565b610400565b9050919050565b60006104578261042a565b9050919050565b60006104698261044c565b9050919050565b6104798161045e565b82525050565b60006020820190506104946000830184610470565b92915050565b7f4e487b7100000000000000000000000000000000000000000000000000000000600052601160045260246000fd5b60006104d482610373565b91506104df83610373565b9250817fffffffffffffffffffffffffffffffffffffffffffffffffffffffffffffffff04831182151516156105185761051761049a565b5b828202905092915050565b600082825260208201905092915050565b7f70617920657175616c20616d6f756e7400000000000000000000000000000000600082015250565b600061056a601083610523565b915061057582610534565b602082019050919050565b600060208201905081810360008301526105998161055d565b9050919050565b60006105ab82610400565b9050919050565b6105bb816105a0565b82525050565b60006020820190506105d660008301846105b2565b92915050565b6000815190506105eb8161037d565b92915050565b6000602082840312156106075761060661036e565b5b6000610615848285016105dc565b91505092915050565b7f6e6f6f6f6f6f0000000000000000000000000000000000000000000000000000600082015250565b6000610654600683610523565b915061065f8261061e565b602082019050919050565b6000602082019050818103600083015261068381610647565b9050919050565b600060408201905061069f60008301856105b2565b6106ac60208301846103d6565b9392505050565b60008115159050919050565b6106c8816106b3565b81146106d357600080fd5b50565b6000815190506106e5816106bf565b92915050565b6000602082840312156107015761070061036e565b5b600061070f848285016106d6565b91505092915050565b7f7472616e7366657220756e7375636365737366756c0000000000000000000000600082015250565b600061074e601583610523565b915061075982610718565b602082019050919050565b6000602082019050818103600083015261077d81610741565b9050919050565b600061078f82610373565b915061079a83610373565b9250827fffffffffffffffffffffffffffffffffffffffffffffffffffffffffffffffff038211156107cf576107ce61049a565b5b82820190509291505056fea26469706673582212205519c20e41ed3c83a2bb350d52dacdfc0cd289a10b7715c4716a12e86c12bb0964736f6c634300080e0033",
  "immutableReferences": {},
  "source": "// SPDX-License-Identifier: MIT\npragma solidity ^0.8.14;\nimport \"./token.sol\";\ncontract tokenSale{\n    token public Token;\n    uint public tokenSold;\n    address private admin;\n    uint public tokenPrice;\n    event Sell(address _buyer,uint _amount);\n    constructor (token _token,uint _tokenPrice){\n        admin=msg.sender;\n        Token=_token;\n        tokenPrice=_tokenPrice;\n    }\n    function buyToken(uint _amount) public payable{\n        require(msg.value==(_amount*tokenPrice),\"pay equal amount\");\n        require(Token.balanceOf(address(this))>=_amount,\"nooooo\");\n        require(Token.transfer(msg.sender, _amount),\"transfer unsuccessful\");\n        tokenSold+=_amount;\n        emit Sell(msg.sender,_amount);\n    }\n\n}",
  "sourcePath": "/Users/yaksheshgupta/Desktop/Tron_Hackathon/crypto_Project/contracts/tokenSale.sol",
  "compiler": {
    "name": "solc",
    "version": "0.8.14+commit.80d49f37.Emscripten.clang"
  },
  "schemaVersion": "3.4.7",
  "updatedAt": "2022-07-27T16:51:27.321Z",
  "networkType": "ethereum",
  "devdoc": {
    "kind": "dev",
    "methods": {},
    "version": 1
  },
  "userdoc": {
    "kind": "user",
    "methods": {},
    "version": 1
  }
}