{
  "contractName": "token",
  "abi": [
    {
      "inputs": [
        {
          "internalType": "uint256",
          "name": "_totalsupply",
          "type": "uint256"
        },
        {
          "internalType": "string",
          "name": "_name",
          "type": "string"
        },
        {
          "internalType": "string",
          "name": "_symbol",
          "type": "string"
        }
      ],
      "stateMutability": "nonpayable",
      "type": "constructor"
    },
    {
      "anonymous": false,
      "inputs": [
        {
          "indexed": true,
          "internalType": "address",
          "name": "_owner",
          "type": "address"
        },
        {
          "indexed": true,
          "internalType": "address",
          "name": "_spender",
          "type": "address"
        },
        {
          "indexed": false,
          "internalType": "uint256",
          "name": "_amount",
          "type": "uint256"
        }
      ],
      "name": "_Approve",
      "type": "event"
    },
    {
      "anonymous": false,
      "inputs": [
        {
          "indexed": true,
          "internalType": "address",
          "name": "_from",
          "type": "address"
        },
        {
          "indexed": true,
          "internalType": "address",
          "name": "_to",
          "type": "address"
        },
        {
          "indexed": false,
          "internalType": "uint256",
          "name": "_amount",
          "type": "uint256"
        }
      ],
      "name": "_Transfer",
      "type": "event"
    },
    {
      "inputs": [
        {
          "internalType": "address",
          "name": "",
          "type": "address"
        },
        {
          "internalType": "address",
          "name": "",
          "type": "address"
        }
      ],
      "name": "allowance",
      "outputs": [
        {
          "internalType": "uint256",
          "name": "",
          "type": "uint256"
        }
      ],
      "stateMutability": "view",
      "type": "function",
      "constant": true
    },
    {
      "inputs": [
        {
          "internalType": "address",
          "name": "",
          "type": "address"
        }
      ],
      "name": "balanceOf",
      "outputs": [
        {
          "internalType": "uint256",
          "name": "",
          "type": "uint256"
        }
      ],
      "stateMutability": "view",
      "type": "function",
      "constant": true
    },
    {
      "inputs": [],
      "name": "name",
      "outputs": [
        {
          "internalType": "string",
          "name": "",
          "type": "string"
        }
      ],
      "stateMutability": "view",
      "type": "function",
      "constant": true
    },
    {
      "inputs": [],
      "name": "symbol",
      "outputs": [
        {
          "internalType": "string",
          "name": "",
          "type": "string"
        }
      ],
      "stateMutability": "view",
      "type": "function",
      "constant": true
    },
    {
      "inputs": [],
      "name": "total_supply",
      "outputs": [
        {
          "internalType": "uint256",
          "name": "",
          "type": "uint256"
        }
      ],
      "stateMutability": "view",
      "type": "function",
      "constant": true
    },
    {
      "inputs": [
        {
          "internalType": "address",
          "name": "_to",
          "type": "address"
        },
        {
          "internalType": "uint256",
          "name": "_amount",
          "type": "uint256"
        }
      ],
      "name": "transfer",
      "outputs": [
        {
          "internalType": "bool",
          "name": "success",
          "type": "bool"
        }
      ],
      "stateMutability": "nonpayable",
      "type": "function"
    },
    {
      "inputs": [
        {
          "internalType": "address",
          "name": "_spender",
          "type": "address"
        },
        {
          "internalType": "uint256",
          "name": "_amount",
          "type": "uint256"
        }
      ],
      "name": "approve",
      "outputs": [
        {
          "internalType": "bool",
          "name": "sucess",
          "type": "bool"
        }
      ],
      "stateMutability": "nonpayable",
      "type": "function"
    },
    {
      "inputs": [
        {
          "internalType": "address",
          "name": "_from",
          "type": "address"
        },
        {
          "internalType": "address",
          "name": "_to",
          "type": "address"
        },
        {
          "internalType": "uint256",
          "name": "_amount",
          "type": "uint256"
        }
      ],
      "name": "transferFrom",
      "outputs": [
        {
          "internalType": "bool",
          "name": "success",
          "type": "bool"
        }
      ],
      "stateMutability": "nonpayable",
      "type": "function"
    }
  ],
  "bytecode": "0x60806040523480156200001157600080fd5b506040516200123d3803806200123d833981810160405281019062000037919062000345565b81600090805190602001906200004f929190620000bd565b50806001908051906020019062000068929190620000bd565b5082600360003373ffffffffffffffffffffffffffffffffffffffff1673ffffffffffffffffffffffffffffffffffffffff168152602001908152602001600020819055508260028190555050505062000443565b828054620000cb906200040e565b90600052602060002090601f016020900481019282620000ef57600085556200013b565b82601f106200010a57805160ff19168380011785556200013b565b828001600101855582156200013b579182015b828111156200013a5782518255916020019190600101906200011d565b5b5090506200014a91906200014e565b5090565b5b80821115620001695760008160009055506001016200014f565b5090565b6000604051905090565b600080fd5b600080fd5b6000819050919050565b620001968162000181565b8114620001a257600080fd5b50565b600081519050620001b6816200018b565b92915050565b600080fd5b600080fd5b6000601f19601f8301169050919050565b7f4e487b7100000000000000000000000000000000000000000000000000000000600052604160045260246000fd5b6200021182620001c6565b810181811067ffffffffffffffff82111715620002335762000232620001d7565b5b80604052505050565b6000620002486200016d565b905062000256828262000206565b919050565b600067ffffffffffffffff821115620002795762000278620001d7565b5b6200028482620001c6565b9050602081019050919050565b60005b83811015620002b157808201518184015260208101905062000294565b83811115620002c1576000848401525b50505050565b6000620002de620002d8846200025b565b6200023c565b905082815260208101848484011115620002fd57620002fc620001c1565b5b6200030a84828562000291565b509392505050565b600082601f8301126200032a5762000329620001bc565b5b81516200033c848260208601620002c7565b91505092915050565b60008060006060848603121562000361576200036062000177565b5b60006200037186828701620001a5565b935050602084015167ffffffffffffffff8111156200039557620003946200017c565b5b620003a38682870162000312565b925050604084015167ffffffffffffffff811115620003c757620003c66200017c565b5b620003d58682870162000312565b9150509250925092565b7f4e487b7100000000000000000000000000000000000000000000000000000000600052602260045260246000fd5b600060028204905060018216806200042757607f821691505b6020821081036200043d576200043c620003df565b5b50919050565b610dea80620004536000396000f3fe608060405234801561001057600080fd5b50600436106100885760003560e01c806370a082311161005b57806370a082311461012957806395d89b4114610159578063a9059cbb14610177578063dd62ed3e146101a757610088565b806306fdde031461008d578063095ea7b3146100ab57806323b872dd146100db5780633940e9ee1461010b575b600080fd5b6100956101d7565b6040516100a291906109a8565b60405180910390f35b6100c560048036038101906100c09190610a63565b610265565b6040516100d29190610abe565b60405180910390f35b6100f560048036038101906100f09190610ad9565b6103ad565b6040516101029190610abe565b60405180910390f35b61011361069f565b6040516101209190610b3b565b60405180910390f35b610143600480360381019061013e9190610b56565b6106a5565b6040516101509190610b3b565b60405180910390f35b6101616106bd565b60405161016e91906109a8565b60405180910390f35b610191600480360381019061018c9190610a63565b61074b565b60405161019e9190610abe565b60405180910390f35b6101c160048036038101906101bc9190610b83565b6108ea565b6040516101ce9190610b3b565b60405180910390f35b600080546101e490610bf2565b80601f016020809104026020016040519081016040528092919081815260200182805461021090610bf2565b801561025d5780601f106102325761010080835404028352916020019161025d565b820191906000526020600020905b81548152906001019060200180831161024057829003601f168201915b505050505081565b600081600360008573ffffffffffffffffffffffffffffffffffffffff1673ffffffffffffffffffffffffffffffffffffffff16815260200190815260200160002060008282546102b69190610c52565b9250508190555081600460003373ffffffffffffffffffffffffffffffffffffffff1673ffffffffffffffffffffffffffffffffffffffff16815260200190815260200160002060008573ffffffffffffffffffffffffffffffffffffffff1673ffffffffffffffffffffffffffffffffffffffff168152602001908152602001600020819055508273ffffffffffffffffffffffffffffffffffffffff163373ffffffffffffffffffffffffffffffffffffffff167fb8397cc542a673f4d021efcc9110362d6967460923d89954cbba39d7dde9be3f8460405161039b9190610b3b565b60405180910390a36001905092915050565b600081600460003373ffffffffffffffffffffffffffffffffffffffff1673ffffffffffffffffffffffffffffffffffffffff16815260200190815260200160002060008673ffffffffffffffffffffffffffffffffffffffff1673ffffffffffffffffffffffffffffffffffffffff16815260200190815260200160002054101561046e576040517f08c379a000000000000000000000000000000000000000000000000000000000815260040161046590610cf4565b60405180910390fd5b81600360008673ffffffffffffffffffffffffffffffffffffffff1673ffffffffffffffffffffffffffffffffffffffff1681526020019081526020016000205410156104f0576040517f08c379a00000000000000000000000000000000000000000000000000000000081526004016104e790610d60565b60405180910390fd5b81600460003373ffffffffffffffffffffffffffffffffffffffff1673ffffffffffffffffffffffffffffffffffffffff16815260200190815260200160002060008673ffffffffffffffffffffffffffffffffffffffff1673ffffffffffffffffffffffffffffffffffffffff168152602001908152602001600020600082825461057c9190610d80565b9250508190555081600360008673ffffffffffffffffffffffffffffffffffffffff1673ffffffffffffffffffffffffffffffffffffffff16815260200190815260200160002060008282546105d29190610d80565b9250508190555081600360008573ffffffffffffffffffffffffffffffffffffffff1673ffffffffffffffffffffffffffffffffffffffff16815260200190815260200160002060008282546106289190610c52565b925050819055508273ffffffffffffffffffffffffffffffffffffffff168473ffffffffffffffffffffffffffffffffffffffff167fe156b1b6735c69d856fb922554b4fb7420f470e899a3dc4e8cff66f6bb8a8f778460405161068c9190610b3b565b60405180910390a3600190509392505050565b60025481565b60036020528060005260406000206000915090505481565b600180546106ca90610bf2565b80601f01602080910402602001604051908101604052809291908181526020018280546106f690610bf2565b80156107435780601f1061071857610100808354040283529160200191610743565b820191906000526020600020905b81548152906001019060200180831161072657829003601f168201915b505050505081565b600081600360003373ffffffffffffffffffffffffffffffffffffffff1673ffffffffffffffffffffffffffffffffffffffff1681526020019081526020016000205410156107cf576040517f08c379a00000000000000000000000000000000000000000000000000000000081526004016107c690610d60565b60405180910390fd5b81600360003373ffffffffffffffffffffffffffffffffffffffff1673ffffffffffffffffffffffffffffffffffffffff168152602001908152602001600020600082825461081e9190610d80565b9250508190555081600360008573ffffffffffffffffffffffffffffffffffffffff1673ffffffffffffffffffffffffffffffffffffffff16815260200190815260200160002060008282546108749190610c52565b925050819055508273ffffffffffffffffffffffffffffffffffffffff163373ffffffffffffffffffffffffffffffffffffffff167fe156b1b6735c69d856fb922554b4fb7420f470e899a3dc4e8cff66f6bb8a8f77846040516108d89190610b3b565b60405180910390a36001905092915050565b6004602052816000526040600020602052806000526040600020600091509150505481565b600081519050919050565b600082825260208201905092915050565b60005b8381101561094957808201518184015260208101905061092e565b83811115610958576000848401525b50505050565b6000601f19601f8301169050919050565b600061097a8261090f565b610984818561091a565b935061099481856020860161092b565b61099d8161095e565b840191505092915050565b600060208201905081810360008301526109c2818461096f565b905092915050565b600080fd5b600073ffffffffffffffffffffffffffffffffffffffff82169050919050565b60006109fa826109cf565b9050919050565b610a0a816109ef565b8114610a1557600080fd5b50565b600081359050610a2781610a01565b92915050565b6000819050919050565b610a4081610a2d565b8114610a4b57600080fd5b50565b600081359050610a5d81610a37565b92915050565b60008060408385031215610a7a57610a796109ca565b5b6000610a8885828601610a18565b9250506020610a9985828601610a4e565b9150509250929050565b60008115159050919050565b610ab881610aa3565b82525050565b6000602082019050610ad36000830184610aaf565b92915050565b600080600060608486031215610af257610af16109ca565b5b6000610b0086828701610a18565b9350506020610b1186828701610a18565b9250506040610b2286828701610a4e565b9150509250925092565b610b3581610a2d565b82525050565b6000602082019050610b506000830184610b2c565b92915050565b600060208284031215610b6c57610b6b6109ca565b5b6000610b7a84828501610a18565b91505092915050565b60008060408385031215610b9a57610b996109ca565b5b6000610ba885828601610a18565b9250506020610bb985828601610a18565b9150509250929050565b7f4e487b7100000000000000000000000000000000000000000000000000000000600052602260045260246000fd5b60006002820490506001821680610c0a57607f821691505b602082108103610c1d57610c1c610bc3565b5b50919050565b7f4e487b7100000000000000000000000000000000000000000000000000000000600052601160045260246000fd5b6000610c5d82610a2d565b9150610c6883610a2d565b9250827fffffffffffffffffffffffffffffffffffffffffffffffffffffffffffffffff03821115610c9d57610c9c610c23565b5b828201905092915050565b7f68656c6c6f000000000000000000000000000000000000000000000000000000600082015250565b6000610cde60058361091a565b9150610ce982610ca8565b602082019050919050565b60006020820190508181036000830152610d0d81610cd1565b9050919050565b7f6e6f7420656e6f75676820746f6b656e00000000000000000000000000000000600082015250565b6000610d4a60108361091a565b9150610d5582610d14565b602082019050919050565b60006020820190508181036000830152610d7981610d3d565b9050919050565b6000610d8b82610a2d565b9150610d9683610a2d565b925082821015610da957610da8610c23565b5b82820390509291505056fea26469706673582212204abb14b6a64bcf5a38ba1d4645863f48ef9d13fedd301f61e6669a970b1b4ccb64736f6c634300080e0033",
  "immutableReferences": {},
  "source": "// SPDX-License-Identifier: MIT\npragma solidity ^0.8.14;\ncontract token{\n    string public name;\n    string public symbol;\n    uint public total_supply;\n    event _Transfer(address indexed _from,address indexed _to,uint _amount);\n    event _Approve(address indexed _owner, address indexed _spender,uint _amount);\n    mapping (address=>uint) public balanceOf;\n    mapping (address=> mapping(address=>uint)) public allowance;//main=>another=>amount\n    constructor(uint _totalsupply,string memory _name,string memory _symbol)   {\n        name=_name;\n        symbol=_symbol;\n        balanceOf[msg.sender]=_totalsupply;\n        total_supply=_totalsupply;\n    }\n    function transfer(address _to,uint _amount) public returns(bool success) {\n        require(balanceOf[msg.sender]>=_amount,\"not enough token\");\n        // transfer\n        balanceOf[msg.sender]-=_amount;\n        // to\n        balanceOf[_to]+=_amount;\n        // emit\n        emit _Transfer(msg.sender, _to, _amount);\n        return true;\n    }\n    // approve\n    function approve(address _spender , uint _amount) public returns (bool sucess){\n        balanceOf[_spender]+=_amount;\n        allowance[msg.sender][_spender]=_amount;\n        emit _Approve(msg.sender, _spender, _amount);\n        return true;\n    }\n    function transferFrom(address _from,address _to,uint _amount) public returns(bool success){\n        require(allowance[msg.sender][_from]>=_amount,\"hello\");\n        require(balanceOf[_from]>=_amount,\"not enough token\");\n        // transfer\n        allowance[msg.sender][_from]-=_amount;\n        balanceOf[_from]-=_amount;\n        // to\n        balanceOf[_to]+=_amount;\n        // emit\n        emit _Transfer(_from, _to, _amount);\n        return true;\n    }\n}",
  "sourcePath": "/Users/yaksheshgupta/Desktop/Tron_Hackathon/crypto_Project/contracts/token.sol",
  "compiler": {
    "name": "solc",
    "version": "0.8.14+commit.80d49f37.Emscripten.clang"
  },
  "schemaVersion": "3.4.7",
  "updatedAt": "2022-07-27T16:51:27.317Z",
  "networkType": "ethereum",
  "devdoc": {
    "kind": "dev",
    "methods": {},
    "version": 1
  },
  "userdoc": {
    "kind": "user",
    "methods": {},
    "version": 1
  }
}